:020000040000FA
:1000000083120313D730F000EB30F100DB30F20045
:10001000BB30F300ED30F400DD30F500BD30F6000C
:10002000EE30F700DE30F800BE30F900E730FA00BD
:100030007730FB007B30FC007D30FD007E30FE0021
:10004000B730FF0083160313091283160313F03031
:100050008800003086008312031300308600A10060
:1000600083120313FE3088000808A0005520A10069
:100070008600831203130D3088000808A000552065
:10008000A1008600831203130B3088000808A0002B
:100090005520A1008600831203130730880008084A
:1000A000A0005520A1008600302820087002031D02
:1000B0005B280030080020087102031D6128013010
:1000C000080020087202031D67280230080020087B
:1000D0007302031D6D280330080020087402031DFD
:1000E00073280430080020087502031D79280530A4
:1000F000080020087602031D7F280630080020082B
:100100007702031D85280730080020087802031DA8
:100110008B280830080020087902031D9128093037
:10012000080020087A02031D97280A3008002008DA
:100130007B02031D9D280B30080020087C02031D54
:10014000A3280C30080020087D02031DA9280D30CB
:10015000080020087E02031DAF280E30080020088A
:100160007F02031DB5280F300800831203132108F6
:02017000080085
:043000000034003464
:02400E00393F38
:00000001FF
